:100000000C94A7000C94C4000C94C4000C94C4007D
:100010000C94C4000C94C4000C94C4000C94C40050
:100020000C94C4000C94C4000C94C4000C94C40040
:100030000C94C4000C94C4000C94C4000C94C40030
:100040000C94C4000C94C4000C94C4000C94C40020
:100050000C94C40000407A10F35A00A0724E1809A4
:100060000010A5D4E80000E87648170000E40B541F
:10007000020000CA9A3B000000E1F50500008096EE
:100080009800000040420F000000A0860100000020
:10009000102700000000E8030000000064000000DA
:1000A00000000A00000000000100000000002C76A3
:1000B000D888DC674F0823DFC1DFAE59E1B1B796BE
:1000C000E5E3E453C63AE651997696E8E6C284261B
:1000D000EB898C9B62ED407C6FFCEFBC9C9F40F2F7
:1000E000BAA56FA5F490055A2AF75C936B6CF96773
:1000F0006DC11BFCE0E40D47FEF520E6B500D0ED38
:10010000902E0300943577050080841E080000209F
:100110004E0A000000C80C333333330F986E12833D
:100120001141EF8D2114893BE65516CFFEE6DB1811
:10013000D1844B381BF77C1D901DA4BBE4242032D6
:1001400084725E228100C9F124ECA1E53D271124CF
:100150001FBECFE5D8E0DEBFCDBF11E0A0E6B0E026
:10016000E6E7F6E202C005900D92A23FB107D9F78B
:1001700015E0A2EFB1E001C01D92A939B107E1F786
:100180000E94A2070C9439130C940000A0E0B0E088
:10019000ECECF0E00C948A0DDC012B01FA019C914F
:1001A000923008F439C1EB018881823008F433C100
:1001B000943069F4843009F02FC111969C91119705
:1001C0008981981709F428C1AAEEB0E025C18430CE
:1001D00009F421C18230A9F4923009F01DC19A01BD
:1001E000AD0188E0EA010990AE01E90109929E01A2
:1001F0008150C1F7E201898111969C918923818305
:1002000008C1923009F407C112962D903C901397C3
:10021000EB018A819B811496AD90BD90CD90DC90CE
:100220001797EC80FD800E811F819101281B390BEF
:10023000B90137FF04C066277727621B730B603252
:1002400071050CF061C0121613066CF537014801F8
:10025000062E04C096948794779467940A94D2F7F4
:1002600021E030E040E050E004C0220F331F441F83
:10027000551F6A95D2F721503040404050402E2102
:100280003F2140235123211531054105510521F01E
:1002900021E030E040E050E079018A01E628F728CB
:1002A000082919293CC0232BD1F1260E371E350110
:1002B0004601062E04C096948794779467940A9416
:1002C000D2F721E030E040E050E004C0220F331FBD
:1002D000441F551F6A95D2F721503040404050408E
:1002E0002A213B214C215D21211531054105510574
:1002F00021F021E030E040E050E059016A01A628F9
:10030000B728C828D9280BC0821593052CF01C01EA
:10031000AA24BB24650103C0EE24FF2487011196A3
:100320009C91D20111968C91981709F445C099239C
:1003300039F0A80197012A193B094C095D0906C04B
:10034000A60195012E193F09400B510B57FD08C01E
:1003500011823382228224833583468357831DC0D2
:1003600081E081833382228288279927DC01821BE6
:10037000930BA40BB50B84839583A683B7830DC021
:10038000220F331F441F551F248335834683578311
:100390008281938101979383828324813581468171
:1003A0005781DA01C9010197A109B1098F5F9F4FF8
:1003B000AF4FBF4328F30BC0918333822282EA0CF4
:1003C000FB1C0C1D1D1DE482F5820683178383E050
:1003D0008083248135814681578157FF1AC0C90126
:1003E000AA2797FDA095BA2F81709070A070B07069
:1003F0005695479537952795822B932BA42BB52B94
:1004000084839583A683B7838281938101969383A6
:100410008283DF0101C0D201CD01CDB7DEB7E2E1B9
:100420000C94A60DA0E2B0E0E8E1F2E00C94960D89
:1004300069837A838B839C832D833E834F83588784
:10044000E9E0EE2EF12CEC0EFD1ECE010196B70177
:100450000E941C068E010F5E1F4FCE010596B8014B
:100460000E941C068A8991E089278A8BC701B801FE
:10047000AE01475E5F4F0E94C6000E944705A096EE
:10048000E6E00C94B20DA0E2B0E0E9E4F2E00C94F6
:10049000960D69837A838B839C832D833E834F8360
:1004A0005887F9E0EF2EF12CEC0EFD1ECE010196DF
:1004B000B7010E941C068E010F5E1F4FCE010596EC
:1004C000B8010E941C06C701B801AE01475E5F4F2C
:1004D0000E94C6000E944705A096E6E00C94B20D6B
:1004E000A0E2B0E0E6E7F2E00C948A0D69837A833B
:1004F0008B839C832D833E834F835887CE01019647
:10050000BE01675F7F4F0E941C06CE010596BE01AB
:100510006F5E7F4F0E941C069985923088F0898912
:100520008230C8F0943019F4823051F404C0843021
:1005300029F4923081F48AEE90E0C6C0923049F4FA
:1005400020E09A858A89981321E02A87CE010996AE
:10055000BBC0823049F420E09A858A89981321E053
:100560002A8BCE014196B0C02D843E844F8458889A
:100570006D887E888F88988CEE24FF248701AA24BA
:10058000BB24650140E050E060E070E0E0E0F0E0B6
:10059000C10181709070892BE9F0E60CF71C081DF1
:1005A000191D9A01AB012A0D3B1D4C1D5D1D80E0FC
:1005B00090E0A0E0B0E0E614F7040805190520F487
:1005C00081E090E0A0E0B0E0BA01A901480F591F16
:1005D0006A1F7B1FAA0CBB1CCC1CDD1C97FE08C02D
:1005E00081E090E0A0E0B0E0A82AB92ACA2ADB2A7C
:1005F0003196E032F10549F0660C771C881C991C95
:100600005694479437942794C3CFFA85EA892B8967
:100610003C898B859C85280F391F2E5F3F4F17C063
:10062000CA0181709070892B61F016950795F79437
:10063000E79480E090E0A0E0B0E8E82AF92A0A2BED
:100640001B2B76956795579547952F5F3F4F77FD05
:10065000E7CF0CC0440F551F661F771F17FD416081
:10066000EE0CFF1C001F111F21503040403090E065
:10067000590790E0690790E4790760F32B8F3C8F6E
:10068000DB01CA018F779070A070B0708034910543
:10069000A105B10561F447FD0AC0E114F1040105AB
:1006A000110529F0405C5F4F6F4F7F4F40781A8EE5
:1006B000FE1711F081E08A8F4D8F5E8F6F8F78A3C8
:1006C00083E0898FCE0149960E944705A096E2E11A
:1006D0000C94A60DA8E1B0E0E0E7F3E00C94920DD5
:1006E00069837A838B839C832D833E834F835887D2
:1006F000B9E0EB2EF12CEC0EFD1ECE010196B701F8
:100700000E941C068E010F5E1F4FCE010596B80198
:100710000E941C062985223008F47EC039893230B7
:1007200010F4B8017CC08A859A8989278A87243089
:1007300011F0223031F4231709F06EC06AEE70E038
:100740006EC0343039F41D861E861F86188A1C86BA
:100750001B8604C0323021F484E08987B7015FC072
:100760002B853C858B899C89281B390B3C872B87E3
:10077000ED84FE840F851889AD88BE88CF88D88C1B
:10078000EA14FB040C051D0540F4EE0CFF1C001FD1
:10079000111F215030403C872B8720E030E040E0A3
:1007A00050E080E090E0A0E0B0E460E070E0EA14A7
:1007B000FB040C051D0540F0282B392B4A2B5B2B25
:1007C000EA18FB080C091D09B695A795979587951A
:1007D000EE0CFF1C001F111F6F5F7F4F6F31710503
:1007E00031F7DA01C9018F779070A070B070803452
:1007F0009105A105B10561F427FD0AC0E114F104DA
:100800000105110529F0205C3F4F4F4F5F4F2078C5
:100810002D873E874F87588BBE01675F7F4FCB0187
:100820000E9447056896EAE00C94AE0DA8E1B0E09E
:10083000ECE1F4E00C94960D69837A838B839C83BE
:100840002D833E834F83588789E0E82EF12CEC0EF0
:10085000FD1ECE010196B7010E941C068E010F5E9F
:100860001F4FCE010596B8010E941C068985823073
:1008700040F08989823028F0C701B8010E949406AF
:1008800001C08FEF6896E6E00C94B20DA8E0B0E0EE
:10089000ECE4F4E00C94930D9B01AC0183E08983BC
:1008A000DA01C9018827B7FD83959927AA27BB27B5
:1008B000B82E211531054105510519F482E08983CF
:1008C0003AC08823A9F0203080E0380780E048074C
:1008D00080E8580729F460E070E080E09FEC30C0C9
:1008E000EE24FF248701E21AF30A040B150B02C061
:1008F00079018A018EE1C82ED12CDC82CB82ED8277
:10090000FE820F831887C801B7010E94F80401977F
:100910001816190684F4082E04C0EE0CFF1C001FE4
:10092000111F0A94D2F7ED82FE820F831887C81A2E
:10093000D90ADC82CB82BA82CE0101960E94470599
:100940002896E9E00C94AF0DACE0B0E0EAEAF4E000
:100950000C949A0D69837A838B839C83CE010196D4
:10096000BE016B5F7F4F0E941C068D81823061F15A
:10097000823050F1843021F48E81882351F12EC0D1
:100980002F81388537FD20C06E812F3131051CF055
:100990006623F9F023C08EE190E0821B930B29853A
:1009A0003A854B855C8504C05695479537952795C4
:1009B0008A95D2F76623B1F05095409530952195F0
:1009C0003F4F4F4F5F4F0EC020E030E040E050E01F
:1009D00009C02FEF3FEF4FEF5FE704C020E030E0AA
:1009E00040E050E8B901CA012C96E2E00C94B60D43
:1009F000EF92FF920F931F937B018C0180E0E8162A
:100A000080E0F80681E0080780E0180788F48FEF9F
:100A1000E816F1040105110531F028F088E090E0B6
:100A2000A0E0B0E017C080E090E0A0E0B0E012C02D
:100A300080E0E81680E0F80680E0080781E018070B
:100A400028F088E190E0A0E0B0E004C080E190E010
:100A5000A0E0B0E020E230E040E050E0281B390B9D
:100A60004A0B5B0B04C016950795F794E7948A959B
:100A7000D2F7F701EE50FF4F8081281B3109410961
:100A80005109C9011F910F91FF90EF900895DF92D6
:100A9000EF92FF920F931F93FC01E480F580068193
:100AA0001781D1808081823048F480E090E0A0E11D
:100AB000B0E0E82AF92A0A2B1B2BA5C0843009F4E0
:100AC0009FC0823021F4EE24FF24870105C0E11489
:100AD000F1040105110519F4E0E0F0E096C062812F
:100AE00073819FEF623879070CF05BC022E83FEF1B
:100AF000261B370B2A3131052CF020E030E040E096
:100B000050E02AC0B801A701022E04C0769567956F
:100B1000579547950A94D2F781E090E0A0E0B0E0C5
:100B200004C0880F991FAA1FBB1F2A95D2F70197EF
:100B3000A109B1098E219F21A023B1230097A1050E
:100B4000B10521F081E090E0A0E0B0E09A01AB01B6
:100B5000282B392B4A2B5B2BDA01C9018F77907038
:100B6000A070B07080349105A105B10539F427FF5C
:100B700009C0205C3F4F4F4F5F4F04C0215C3F4F87
:100B80004F4F5F4FE0E0F0E02030A0E03A07A0E0F8
:100B90004A07A0E45A0710F0E1E0F0E079018A0189
:100BA00027C06038710564F5FB01E158FF4FD8019B
:100BB000C7018F779070A070B07080349105A10547
:100BC000B10539F4E7FE0DC080E490E0A0E0B0E0AC
:100BD00004C08FE390E0A0E0B0E0E80EF91E0A1F29
:100BE0001B1F17FF05C016950795F794E7943196DC
:100BF00087E016950795F794E7948A95D1F705C095
:100C0000EE24FF248701EFEFF0E06E2F6795662753
:100C10006795902F9F77D794DD24D7948E2F869554
:100C2000492F462B582F5D29B701CA011F910F91FB
:100C3000FF90EF90DF900895FC01DB01408151812E
:100C40002281622F6F7770E0221F2227221F93815B
:100C5000892F880F822B282F30E0991F9927991F01
:100C600011969C93119721153105A9F54115510550
:100C70006105710511F482E037C082E89FEF139699
:100C80009C938E9312979A01AB0167E0220F331F5A
:100C9000441F551F6A95D1F783E08C930DC0220F36
:100CA000331F441F551F12968D919C9113970197E6
:100CB00013969C938E931297203080E0380780E043
:100CC000480780E4580758F314962D933D934D93AD
:100CD0005C93179708952F3F310579F4411551051D
:100CE0006105710519F484E08C93089564FF03C0D5
:100CF00081E08C9312C01C9210C02F573040139685
:100D00003C932E93129783E08C9387E0440F551FFA
:100D1000661F771F8A95D1F7706414964D935D9383
:100D20006D937C93179708951F93DC01FB019C91B1
:100D3000923008F447C08081823008F443C0943078
:100D400051F411961C91843099F58181682F70E0DF
:100D5000611B71093FC0843021F0923031F4823040
:100D6000B9F18181882389F12DC011961C911197C9
:100D70008230F1F081811817D9F412962D913C91AF
:100D80001397828193818217930794F0281739076C
:100D9000BCF014968D919D910D90BC91A02D248155
:100DA000358146815781281739074A075B0718F4B0
:100DB000112341F00AC082179307A407B50740F436
:100DC000112319F061E070E005C06FEF7FEF02C002
:100DD00060E070E0CB011F91089511B88FEF80B9EA
:100DE0000895982F84EA86BF06B607FEFDCF81B12D
:100DF000887F883011F080E0089593B984E886BF39
:100E000006B607FEFDCF81B1887F883111F481E0FD
:100E10000895803211F083E0089582E00895982FBC
:100E200084EA86BF06B607FEFDCF81B1887F803198
:100E300011F080E0089593B984E886BF06B607FEF6
:100E4000FDCF81B1887F803411F481E00895803234
:100E500011F083E0089582E0089584E986BF06B624
:100E600004FCFDCF0895982F44EA34E824E946BFF6
:100E700006B607FEFDCF81B1887F8830C1F793B9F0
:100E800036BF06B607FEFDCF81B1887F883129F0D5
:100E900026BF06B604FCFDCFEACF089583B984E8E7
:100EA00086BF06B607FEFDCF81B1887F883211F478
:100EB00080E00895803311F082E0089581E0089584
:100EC00084EC86BF06B607FEFDCF83B1089584E8A3
:100ED00086BF06B607FEFDCF83B108959B01AC0126
:100EE0008AB188618AB980B5866880BD64E0220FC6
:100EF000331F441F551F6A95D1F760E472E48FE0F9
:100F000090E00E94680DC901DA01215029B90197CA
:100F1000A109B109892F9A2FAB2FBB2780BD089556
:100F20005F9BFECF8CB108958CB95D9BFECF089579
:100F3000FC0104C08CB95D9BFECF31968081882373
:100F4000C9F7089588E290E09093BE038093BD03B3
:100F500010927805109277051092B1031092B003A9
:100F600082E390E0909398058093970584E690E063
:100F70009093BC038093BB0380E991E090937A0542
:100F8000809379051092900510928F051092960526
:100F9000109295051092B2030E94ED060E94640C17
:100FA000D89A60E679E080E090E00E946E070E94A7
:100FB000AB0C0E94E8070E94D00A0E94D1080E9450
:100FC00047090E94C7090E94390A0E940E0AEFCF02
:100FD0006F927F928F929F92AF92BF92CF92DF9249
:100FE000EF92FF920F931F936091C7037091C80314
:100FF0008091C9039091CA0320E030E040E858E3B3
:101000000E9470023B014C0160936F057093700564
:1010100080937105909372056091AC037091AD035C
:101020008091AE039091AF0320E030E040E858E3B8
:101030000E9470025B016C016093730570937405EC
:1010400080937505909376056091F6017091F70194
:101050008091F8019091F90120E030E040E858E3F8
:101060000E9470027B018C0160937F057093800564
:101070008093810590938205C401B301A601950177
:101080000E944302A80197010E9443026093C30398
:101090007093C4038093C5039093C60360911002BC
:1010A00070911102809112029091130223E333E3B5
:1010B00043E851E40E946A033B014C01609318022B
:1010C0007093190280931A0290931B0260918B0512
:1010D00070918C0580918D0590918E0523E333E30B
:1010E00043E851E40E946A035B016C01609391053F
:1010F0007093920580939305909394056091BF033C
:101100007091C0038091C1039091C20323E333E344
:1011100043E851E40E946A037B018C0160938705D8
:10112000709388058093890590938A05C401B30163
:10113000A60195010E944302A80197010E94430263
:101140006093B3037093B4038093B5039093B60395
:10115000609114027091150280911602909117020D
:1011600020E030E04AEA53E40E946A0328EB3EE1C3
:1011700042E152E40E9443026093FA017093FB0142
:101180008093FC019093FD011F910F91FF90EF90D0
:10119000DF90CF90BF90AF909F908F907F906F9097
:1011A0000895AF92BF92CF92DF92EF92FF920F938A
:1011B0001F93CF93DF93C090BD03D090BE039601E1
:1011C000F601EE0FFF1FEE0FFF1FE952FC4F09C0A3
:1011D00080819181A281B38184839583A683B78323
:1011E0003497215030402230310594F78091B30379
:1011F0009091B403A091B503B091B6038093E3033B
:101200009093E403A093E503B093E6038FEDA82E3B
:1012100083E0B82EC0E0D0E00F2EF0E0EF2EF0E03B
:10122000FF2EF0E00F2FF0E01F2FF02D0DC0C801B2
:10123000B701F50121913191419151915F010E94D6
:1012400043027B018C012196CC15DD0584F3B601A8
:10125000882777FD8095982F0E9446049B01AC015A
:10126000C801B7010E946A0360937B0570937C05F7
:1012700080937D0590937E05DF91CF911F910F9113
:10128000FF90EF90DF90CF90BF90AF900895AF9216
:10129000BF92CF92DF92EF92FF920F931F93CF9363
:1012A000DF93C090BD03D090BE039601F601EE0F10
:1012B000FF1FEE0FFF1FEC5EFD4F09C08081918183
:1012C000A281B38184839583A683B7833497215009
:1012D00030402230310594F780917B0590917C0558
:1012E000A0917D05B0917E0580932002909321020C
:1012F000A0932202B09323022CE1A22E22E0B22E70
:10130000C0E0D0E00F2EF0E0EF2EF0E0FF2EF0E096
:101310000F2FF0E01F2FF02D0DC0C801B701F50110
:1013200021913191419151915F010E9443027B01D2
:101330008C012196CC15DD0584F3C701D80180937B
:10134000830590938405A0938505B0938605B60127
:10135000882777FD8095982F0E9446049B01AC0159
:10136000C801B7010E946A0360937B0570937C05F6
:1013700080937D0590937E05DF91CF911F910F9112
:10138000FF90EF90DF90CF90BF90AF900895EF92D5
:10139000FF920F931F93E0908305F09084050091D6
:1013A000850510918605E092F201F092F301009319
:1013B000F4011093F50160919705709198058827C5
:1013C00077FD8095982F0E9446049B01AC01C801CF
:1013D000B7010E9416048823C4F08091B003909155
:1013E000B103009781F4809177059091780501967B
:1013F000909378058093770581E090E09093B10316
:101400008093B00306C0019721F01092B1031092AF
:10141000B0031F910F91FF90EF900895809179058F
:1014200090917A05019690937A0580937905883C8E
:101430009105F1F42091770530917805309390056E
:1014400020938F05809195059091960501968217BE
:10145000930724F481E08093B20302C01092B20398
:1014600010927A0510927905309396052093950590
:1014700008956F927F928F929F92AF92BF92CF9278
:10148000DF92EF92FF920F931F9360E070E080E095
:1014900090E020916F053091700540917105509159
:1014A00072050E9412027B018C0160E070E080E016
:1014B00090E020917305309174054091750550912D
:1014C00076050E9412025B016C0160E070E080E032
:1014D00090E020917F0530918005409181055091E9
:1014E00082050E9412023B014C01C801B701A8010C
:1014F00097010E9470027B018C01C601B501A60113
:1015000095010E9470029B01AC01C801B7010E94C5
:1015100043027B018C01C401B301A40193010E9429
:1015200070029B01AC01C801B7010E9443020E94F6
:101530000A0E0E94A40424E630E0A901469F90010F
:10154000479F300D569F300D11248091BB03909121
:10155000BC03281739079CF08091B0039091B10328
:10156000009759F480E690E00E94980781E090E0AF
:101570009093B1038093B00306C0019721F01092BD
:10158000B1031092B0031F910F91FF90EF90DF9085
:10159000CF90BF90AF909F908F907F906F90089565
:1015A0008F929F92AF92BF92CF92DF92EF92FF9273
:1015B0000F931F9360916F05709170058091710575
:1015C00090917205E2E0CE2EE2E0DE2E43E022E0D2
:1015D00086010E94C10D00D000D000D0EDB7FEB74B
:1015E00031967BECE72E73E0F72EADB7BEB71296BF
:1015F000FC92EE9211978FE890E093838283D582DC
:10160000C4820E94E20D8DB79EB706960FB6F8947D
:101610009EBF0FBE8DBFC7010E94980760917305E2
:1016200070917405809175059091760543E022E0F4
:101630000E94C10D00D000D000D0EDB7FEB73196AA
:10164000ADB7BEB71296FC92EE9211978BE990E07F
:1016500093838283D582C4820E94E20D8DB79EB7A8
:1016600006960FB6F8949EBF0FBE8DBFC7010E94AD
:10167000980760917F057091800580918105909118
:10168000820543E022E00E94C10D00D000D000D0CE
:10169000EDB7FEB73196ADB7BEB71296FC92EE929B
:1016A000119787EA90E093838283D582C4820E9457
:1016B000E20D8DB79EB706960FB6F8949EBF0FBE8B
:1016C0008DBFC7010E9498076091FA017091FB01DC
:1016D0008091FC019091FD0143E022E00E94C10D48
:1016E000ADB7BEB718970FB6F894BEBF0FBEADBF6B
:1016F000EDB7FEB731961296FC92EE92119783EBFE
:1017000090E093838283D582C48268EFA62EB12CA9
:10171000B782A6820E94E20D8DB79EB708960FB6DB
:10172000F8949EBF0FBE8DBFC7010E9498076091BD
:1017300018027091190280911A0290911B0243E0E5
:1017400022E00E94C10DADB7BEB718970FB6F8944E
:10175000BEBF0FBEADBFEDB7FEB731961296FC927D
:10176000EE9211978FEB90E093838283D582C482AF
:10177000B782A6820E94E20D8DB79EB708960FB67B
:10178000F8949EBF0FBE8DBFC7010E94980760915D
:10179000910570919205809193059091940543E095
:1017A00022E00E94C10DADB7BEB718970FB6F894EE
:1017B000BEBF0FBEADBFEDB7FEB731961296FC921D
:1017C000EE9211978DEC90E093838283D582C48250
:1017D000B782A6820E94E20D8DB79EB708960FB61B
:1017E000F8949EBF0FBE8DBFC7010E9498076091FD
:1017F0008705709188058091890590918A0543E05D
:1018000022E00E94C10DADB7BEB718970FB6F8948D
:10181000BEBF0FBEADBFEDB7FEB731961296FC92BC
:10182000EE9211975BED852E50E0952E9382828289
:10183000D582C482B782A6820E94E20D8DB79EB780
:1018400008960FB6F8949EBF0FBE8DBFC7010E94C9
:1018500098076091770570917805882777FD8095C6
:10186000982F0E94460443E022E00E94C10DADB7CC
:10187000BEB718970FB6F894BEBF0FBEADBFEDB799
:10188000FEB731961296FC92EE9211979382828265
:10189000D582C482B782A6820E94E20D8DB79EB720
:1018A00008960FB6F8949EBF0FBE8DBFC7010E9469
:1018B00098071F910F91FF90EF90DF90CF90BF900E
:1018C000AF909F908F9008958CE792E90197F1F780
:1018D00080ED0E94330789E10E944E0787E00E9455
:1018E0004E070E942D07D89A80ED0E9433078BE6A1
:1018F0000E944E0781E00E944E070E942D0780ED56
:101900000E9433078AE10E944E0780E00E944E0742
:101910000E942D0780ED0E9433078BE10E944E0745
:1019200088E10E944E070E942D0780ED0E94330738
:1019300088E30E944E0781E00E944E070E942D0717
:10194000089580ED0E9433078BE30E944E0781EDDE
:101950000E940F0708951F930E94A10C0E94600728
:10196000182F0E946007312F20E090E0282B392BA0
:10197000442737FD4095542FCA01B9010E944604FF
:101980006093C7037093C8038093C9039093CA03FD
:101990000E946007182F0E946007312F20E090E01E
:1019A000282B392B442737FD4095542FCA01B90104
:1019B0000E9446046093AC037093AD038093AE0322
:1019C0009093AF030E946007182F0E946007312F89
:1019D00020E090E0282B392B442737FD4095542FE9
:1019E000CA01B9010E9446046093F6017093F701A1
:1019F0008093F8019093F9010E946007182F0E94CC
:101A00006007312F20E090E0282B392B442737FD49
:101A10004095542FCA01B9010E94460460931402F4
:101A20007093150280931602909317020E9460072C
:101A3000182F0E946007312F20E090E0282B392BCF
:101A4000442737FD4095542FCA01B9010E9446042E
:101A5000609310027093110280931202909313020C
:101A60000E946007182F0E946007312F20E090E04D
:101A7000282B392B442737FD4095542FCA01B90133
:101A80000E94460460938B0570938C0580938D05AE
:101A900090938E050E946007182F0E946707312FD0
:101AA00020E090E0282B392B442737FD4095542F18
:101AB000CA01B9010E9446046093BF037093C0033A
:101AC0008093C1039093C2030E942D071F91089534
:101AD000A1E21A2EAA1BBB1BFD010DC0AA1FBB1F32
:101AE000EE1FFF1FA217B307E407F50720F0A21BA4
:101AF000B30BE40BF50B661F771F881F991F1A9411
:101B000069F760957095809590959B01AC01BD013A
:101B1000CF0108952F923F924F925F926F927F92E2
:101B20008F929F92AF92BF92CF92DF92EF92FF92ED
:101B30000F931F93CF93DF93CDB7DEB7CA1BDB0B99
:101B40000FB6F894DEBF0FBECDBF09942A8839883E
:101B500048885F846E847D848C849B84AA84B98445
:101B6000C884DF80EE80FD800C811B81AA81B98151
:101B7000CE0FD11D0FB6F894DEBF0FBECDBFED0165
:101B80000895EF92FF920F931F93F22FF02E47FDCF
:101B900002C0E4E001C0E4E1242F332727FD3095A3
:101BA00037FF03C0309521953F4F4F2D512F0F2FF9
:101BB000EE2E0E9425108F2D912F1F910F91FF90D7
:101BC000EF900895AEE0B0E0E8EEFDE00C94980DE3
:101BD0000D891E8986E08C831A8309838FEF9FE726
:101BE0009E838D839E01275E3F4FCE0101966F89B4
:101BF000788DA9010E94480E2F813885020F131F8E
:101C0000F80110822E96E4E00C94B40D11F40EF459
:101C100004C5F5C414D5D0F39923D9F3CEF39F5757
:101C2000550B87FFFDD40024A0E640EA90018058C0
:101C30005695979528F4805C660F771F881F20F0D3
:101C400026173707480730F4621B730B840B2029D3
:101C500031294A2BA69517940794202531254A2728
:101C600058F7660F771F881F20F026173707480799
:101C700030F4620B730B840B200D311D411DA095B8
:101C800081F7B901842F9158880F9695879508950B
:101C9000ABE0B0E0EEE4FEE00C948A0D3C012B01D9
:101CA0005A01FC0117821682838181FD03C06FEF08
:101CB0007FEFC6C19AE0892E1E010894211C311CB9
:101CC000F3012381F20123FD859123FF81912F01EF
:101CD000882309F4B2C1853239F423FD859123FFAD
:101CE00081912F01853229F490E0B3010E94751291
:101CF000E7CF982FFF24EE249924FFE1FF15D0F0C1
:101D00009B3269F09C3228F4903259F0933291F46E
:101D10000EC09D3249F0903369F441E024C052E096
:101D2000F52A84E0F82A28C098E0F92A25C0E0E1E5
:101D3000FE2A22C0F7FC29C0892F80538A3070F414
:101D4000F6FE05C0989C902C1124980E15C0E89CB6
:101D5000E02C1124E80EF0E2FF2A0EC09E3229F496
:101D6000F6FC6BC140E4F42A07C09C3619F450E835
:101D7000F52A02C0983649F4F20123FD959123FF1C
:101D800091912F01992309F0B8CF892F8554833081
:101D900018F08052833038F444E050E0A40EB51EB1
:101DA0005FE359830FC0933631F0933779F0933561
:101DB00009F056C020C0F5018081898342E050E0DF
:101DC000A40EB51E610101E010E012C0F501C08053
:101DD000D180F6FC03C06FEF7FEF02C0692D70E089
:101DE00042E050E0A40EB51EC6010E946A128C01AA
:101DF0005FE7F52214C0F501C080D180F6FC03C076
:101E00006FEF7FEF02C0692D70E042E050E0A40E5A
:101E1000B51EC6010E945F128C0150E8F52AF3FE40
:101E200007C01AC080E290E0B3010E947512EA94E4
:101E30008E2D90E008171907A8F30EC0F601F7FCE5
:101E40008591F7FE81916F0190E0B3010E947512B8
:101E5000E110EA94015010400115110579F7EAC02C
:101E6000943611F0993669F5F7FE08C0F501208126
:101E700031814281538184E090E00AC0F501808184
:101E800091819C01442737FD4095542F82E090E0DA
:101E9000A80EB91E9FE6F92257FF09C0509540953C
:101EA000309521953F4F4F4F5F4FE0E8FE2ACA0122
:101EB000B901A1012AE030E00E94A112D82ED21867
:101EC00040C0953729F41F2D1F7E2AE030E01DC049
:101ED0001F2D197F9F3661F0903720F4983509F057
:101EE000ACC00FC0903739F0983709F0A6C004C0D5
:101EF00028E030E00AC0106114FD146020E130E0F9
:101F000004C014FD166020E132E017FF08C0F5019F
:101F1000608171818281938144E050E008C0F501C5
:101F200080819181BC0180E090E042E050E0A40E0D
:101F3000B51EA1010E94A112D82ED2188FE7F82E4B
:101F4000F122F6FE0BC05EEFF522D91438F4F4FE50
:101F500007C0F2FC05C08FEEF82202C01D2D01C0A3
:101F6000192DF4FE0DC0FE01ED0DF11D80818033B1
:101F700019F499EEF92208C01F5FF2FE05C003C0F4
:101F80008F2D867809F01F5F0F2DF3FC14C0F0FE33
:101F90000FC01E1510F09D2C0BC09D2C9E0C911A8D
:101FA0001E2D06C080E290E0B3010E9475121F5FF3
:101FB0001E15C0F304C01E1510F4E11A01C0EE2472
:101FC00004FF0FC080E390E0B3010E94751202FF8E
:101FD0001DC001FD03C088E790E00EC088E590E0D9
:101FE0000BC0802F867891F001FF02C08BE201C008
:101FF00080E2F7FC8DE290E0B3010E94751206C00A
:1020000080E390E0B3010E9475129A94D914C0F352
:10201000DA94F101ED0DF11D808190E0B3010E9491
:102020007512DD20A9F706C080E290E0B3010E949E
:102030007512EA94EE20C1F743CEF30166817781F1
:10204000CB012B96E2E10C94A60DA9E0B0E0EBE207
:10205000F0E10C948E0D6A01122FA02EBE2C2BE302
:10206000201718F42CE3922E02C0902E9394AE0108
:102070004F5F5F4F27E0092D0E948711BC018981C6
:10208000E82EFF24C70189709070019711F4ADE22A
:1020900009C0B1FE02C0ABE205C0B0FC02C0A0E0C6
:1020A00001C0A0E2E3FE3BC0AA2311F423E001C07B
:1020B00024E0211710F020E002C0121B212FEB2C8E
:1020C000B4FE02C0322F0AC0F601322F80E202C0F5
:1020D000819331503323E1F7C20ED11CAA2319F0AA
:1020E000F601A1936F01F6013196E2FE05C09EE470
:1020F000D6019C9381E404C09EE6D6019C9381E6C0
:1021000011968C9391833296DF01832F90E202C067
:102110009D9381508823E1F7E30FF11D40C0E2FE5B
:1021200042C0AA2311F423E001C024E0211710F0DB
:1021300020E002C0121B212FEB2CB4FE02C0922F14
:102140000AC0F601922F80E202C081939150992338
:10215000E1F7C20ED11CAA2319F0F601A1936F0179
:10216000F6013196E2FE08C089E4D6018C938EE434
:1021700011968C9386E407C089E6D6018C938EE68F
:1021800011968C9386E681833296DF01892F20E2B7
:1021900002C02D9381508823E1F7E90FF11D1082D1
:1021A0002EEF3FEFAFC0161617061CF041E050E0CF
:1021B00003C0AB014F5F5F4FAA2019F480E090E0AD
:1021C00003C08A2D90E0019620E030E0AA2311F0B0
:1021D00021E030E0240F351F280F391F812F90E0B8
:1021E0002817390714F020E002C0121B212F4B2DB5
:1021F00050E0CA0180719070B4FC0DC0B3FC0BC0FC
:10220000F601322F40E202C0419331503323E1F70F
:10221000C20ED11C01C0322FAA2319F0F601A193DE
:102220006F01892B11F0132F0AC0F601132F80E3E1
:1022300002C0819311501123E1F7C30ED11C092D67
:10224000060FBA8090E1892E912C8E209F20E4FE0B
:1022500004C0F1E3BF1609F40150101614F001E0B8
:1022600003C0093008F008E09B0177FF02C020E0BE
:1022700030E0CB010196821B930BFE013196E80FF3
:10228000F91F8EE2F82E3B01601A71088A2D90E04A
:1022900044275527481B590B8FEF2F3F380719F458
:1022A000D601FD926D01621773072CF0621673065A
:1022B00014F4808101C080E321503040319624170E
:1022C000350724F0D6018D936D01E6CF2617370729
:1022D00049F4B5E3BB1528F0BB1621F48114910431
:1022E00009F481E3F6018193D601812F90E202C0C7
:1022F0009C93815011968823D9F7E10FF11D10822C
:1023000020E030E0C9012996EEE00C94AA0D2830B7
:1023100008F027E03327DA01990F311D87FD91601E
:1023200000966105710539F432602E5F3D9330E30C
:102330002A95E1F708959F3F30F0803871056105D7
:1023400009F03C5F3C5F3D93913008F08068911D3F
:10235000DF93CF931F930F93FF92EF92192F987FE4
:102360009695E92F96959695E90FFF27E255FF4F31
:1023700099273327EE24FF24A701E701059008944D
:10238000079428F4360FE71EF81E491F511D660FEB
:10239000771F881F991F0694A1F70590079428F4CA
:1023A000E70EF81E491F561FC11D770F881F991F82
:1023B000661F0694A1F70590079428F4F80E491FAC
:1023C000561FC71FD11D880F991F661F771F0694C0
:1023D000A1F70590079420F4490F561FC71FD81F77
:1023E000990F661F771F881F0694A9F7849110958F
:1023F000177041F0D695C79557954795F794E79490
:102400001A95C1F7E4E5F0E06894159015913591BF
:102410006591959105907FE27395E118F10A430B60
:10242000560BC90BD009C0F7E10CF11E431F561F14
:10243000C91FD01D7EF4703311F48A95E6CFE8945D
:10244000015030F0080F0AF40027021708F4202F7B
:102450002395022F7A3328F079E37D932A95E9F7C3
:1024600010C07D932A9589F60694979567953795C0
:1024700017951794E118F10A430B560BC90BD009B5
:1024800098F023957E9173957A3308F070E37C93EE
:102490002013B8F77E9170617D9330F0839571E3DE
:1024A0007D9370E32A95E1F71124EF90FF900F914F
:1024B0001F91CF91DF91992787FD90950895FC0199
:1024C0000590615070400110D8F7809590958E0F5F
:1024D0009F1F0895FC016150704001900110D8F7D2
:1024E000809590958E0F9F1F08950F931F93CF9304
:1024F000DF938C01EB018B8181FF1BC082FF0DC03C
:102500002E813F818C819D812817390764F4E881F1
:10251000F9810193F983E88306C0E885F985802F66
:102520000995892B31F48E819F8101969F838E833B
:1025300002C00FEF1FEFC801DF91CF911F910F91E4
:102540000895FA01AA27283051F1203181F1E89449
:102550006F936E7F6E5F7F4F8F4F9F4FAF4FB1E096
:102560003ED0B4E03CD0670F781F891F9A1FA11D91
:10257000680F791F8A1F911DA11D6A0F711D811D92
:10258000911DA11D20D009F468943F912AE0269F57
:1025900011243019305D3193DEF6CF010895462FB6
:1025A0004770405D4193B3E00FD0C9F7F6CF462F97
:1025B0004F70405D4A3318F0495D31FD4052419300
:1025C00002D0A9F7EACFB4E0A695979587957795BD
:1025D0006795BA95C9F700976105710508959B0144
:1025E000AC010A2E06945795479537952795BA95CD
:1025F000C9F7620F731F841F951FA01D08959F3F89
:1026000031F0915020F4879577956795B795880FAD
:10261000911D9695879597F908959FEF80EC089501
:1026200091505040660F771F881FD2F7089557FDCD
:102630009058440F551F59F05F3F71F04795880F30
:1026400097FB991F61F09F3F79F0879508951216C7
:1026500013061406551FF2CF4695F1DF08C0161673
:1026600017061806991FF1CF869571056105089424
:062670000895F894FFCF6D
:102676002A2A2A2A2A2A2A2A2A2A2A2A2A2A2A2AB4
:102686002A2A2A2A2A2A2A2A2A2A2A2A2A2A2A2AA4
:102696002A2A2A2A2A2A2A2A2A2A2A2A2A2A0020C8
:1026A6004178203D20257320670900204179203D8F
:1026B6002025732067090020417A203D20257320BC
:1026C6006709002054203D20257325634309002017
:1026D6004778203D20257325632F7309002047790D
:1026E600203D20257325632F73090020477A203D5E
:1026F60020257325632F730D0A00000000000000DB
:10270600000000010202030303030404040404049A
:102716000404050505050505050505050505050565
:102726000505060606060606060606060606060645
:102736000606060606060606060606060606060633
:102746000606070707070707070707070707070715
:102756000707070707070707070707070707070703
:1027660007070707070707070707070707070707F3
:1027760007070707070707070707070707070707E3
:1027860007070808080808080808080808080808C5
:1027960008080808080808080808080808080808B3
:1027A60008080808080808080808080808080808A3
:1027B6000808080808080808080808080808080893
:1027C6000808080808080808080808080808080883
:1027D6000808080808080808080808080808080873
:1027E6000808080808080808080808080808080863
:1027F6000808080808080808080808080808080853
:022806000808C0
:00000001FF
